:020000040800F2
:10000000B8BA0020955900084D4900084F4900082A
:1000100053490008574900085B49000800000000E8
:100020000000000000000000000000005F49000820
:1000300061490008000000002B8C01083D8B00087E
:10004000AF590008AF590008AF590008AF59000870
:10005000AF590008AF590008AF590008AF59000860
:10006000AF590008AF590008AF590008AF59000850
:10007000AF590008AF590008ED57000811580008A3
:10008000AF590008C9570008AF590008AF59000818
:10009000294E0008AF590008AF590008AF590008B1
:1000A000AF590008AF590008AF590008AF59000810
:1000B000AF590008AF590008AF590008AF59000800
:1000C000AF590008AF590008AF590008AF590008F0
:1000D000AF5900088F8D0008EF6601086F710108A5
:1000E000AF590008AF590008AF590008AF590008D0
:1000F000AF590008AF590008AF590008AF590008C0
:10010000AF590008AF590008AF590008AF590008AF
:1001100065590108AF590008AF590008AF590008E8
:10012000F55200083B580008AF590008AF590008C5
:10013000AF590008AF590008AF590008AF5900087F
:100140007F500008AF590008AF590008AF590008A8
:10015000AF590008AF5900085F5800084B700108FC
:10016000AF590008AF590008AF590008AF5900084F
:10017000AF590008AF590008AF590008AF5900083F
:10018000AF590008AF59000800F002F800F05CF821
:100190000AA090E8000C82448344AAF10107DA45E2
:1001A00001D100F051F8AFF2090EBAE80F0013F0D8
:1001B000010F18BFFB1A43F001031847889801008C
:1001C000A89801000A444FF0000C10F8013B13F00E
:1001D000070408BF10F8014B1D1108BF10F8015BA0
:1001E000641E05D010F8016B641E01F8016BF9D193
:1001F00013F0080F1EBF10F8014BAD1C0C1B09D1EA
:100200006D1E58BF01F801CBFAD505E014F8016B5B
:1002100001F8016B6D1EF9D59142D6D370470000ED
:100220000023002400250026103A28BF78C1FBD8FF
:10023000520728BF30C148BF0B6070471FB519F087
:1002400027FA1FBD10B510BD18F0A5FC1146FFF729
:10025000F5FF04F0C0F918F0C3FC03B4FFF7F2FF98
:1002600003BC08F015FD000010B50020F8494871E6
:10027000642008F0F5FC10BD10B50020F449487169
:100280004FF4FA7008F0ECFC0120F24908600020FD
:10029000F149C1F8940210BD10B50020EC49487135
:1002A0004FF4FA7008F0DCFC0020EA4908600120F5
:1002B000E949C1F8940210BD10B50120E449487124
:1002C0004FF4FA7008F0CCFC0020E2490860E249E3
:1002D000C1F894020420E149A1F8B60010BD012044
:1002E000DC4908600020DC49C1F89402DC49087050
:1002F00070470020D74908600120D749C1F894020F
:100300000020D749087070470020D2490860D249C0
:10031000C1F894020120D2490870704770B50546B3
:1003200000240420CF4908701420CF490870012010
:10033000CA49A1F8C0000020CC490870CC49087017
:10034000CC490870CC49087000214FF4FA7018F0BD
:10035000FFF9FFF791FFC94804680BE0241F062C42
:1003600000DA0024A2B20421C54814F023FB0A20BD
:1003700008F076FCC3480089A04203DAC24800783E
:100380000128EBD040F226214FF4FA7018F0E0F982
:10039000BE480088012802DA0120BC49088043E0F9
:1003A000BA480088401EB949088002E0142008F0CD
:1003B00057FCAA48C0884FF6FF71884203D0B24864
:1003C00000780128F2D027E0AF48007808BB002170
:1003D0004FF4FA7018F0BCF9FFF76EFF02E014203A
:1003E00008F03EFC9F480078042803D1A648007816
:1003F0000028F4D09B48007804280AD1FFF73CFF7E
:10040000642008F02DFC40F226214FF4FA7018F019
:100410009FF9142008F024FC9D48807C032803DA0F
:10042000904800780428CFD0984800880028B7D199
:1004300000214FF4FA7018F08BF908E0241DA2B2E5
:1004400004218F4814F0B6FA0A2008F009FC83480A
:10045000008BA04203DD8C4800780128EED0814853
:100460000570142008F0FCFB8A4801884FF4FA70EC
:1004700018F06EF970BD70B5054600240520794965
:10048000087015207849087001207449A1F8C0004F
:1004900000207649087076490870764908707649D8
:1004A000087000214FF4FA7018F052F9FFF7F4FECB
:1004B000724804680BE0241F062C00DA0024A2B264
:1004C00004216F4814F076FA0A2008F0C9FB6D4841
:1004D0004089A04203DA6C4800780128EBD040F252
:1004E00026214FF4FA7018F033F968480088012883
:1004F00002DA0120654908803FE064480088401E18
:100500006249088002E0142008F0AAFB5348C08822
:100510004FF6FF71884203D0524800780528F2D088
:1005200027E05948007808BB00214FF4FA7018F012
:100530000FF9FFF7C1FE02E0142008F091FB4948D3
:100540000078052803D1504800780028F4D04548A9
:10055000007805280AD1FFF79FFE642008F080FB91
:1005600040F226214FF4FA7018F0F2F8142008F047
:1005700077FB4748807C0328D3DB44480088002869
:10058000BBD100214FF4FA7018F0E2F808E0241D06
:10059000A2B204213A4814F00DFA0A2008F060FBD8
:1005A0002E48008BA04203DD374800780128EED0AA
:1005B0002C480570142008F053FB364801884FF48E
:1005C000FA7018F0C5F870BD00BF31E002E00A20F3
:1005D00008F046FB2148B0F8B2000028F7D000260A
:1005E000002400251D48A0F8CC60A0F8C840A0F861
:1005F000CA5018E02848007808B1681CC5B23C2DE4
:1006000002D10025601CC4B23C2C02D10024701C15
:10061000C6B2012008F018FB1048A0F8CC60A0F882
:10062000C840A0F8CA500D48B0F8B2000028E1D187
:10063000CCE70CE019480088012805D109F074F9CD
:100640000121174807F030FF142008F009FBF1E7FB
:100650007100002090024142000041422892002097
:10066000010000200E0000204200002012000020A7
:10067000130000201400002015000020300000208E
:1006800000080040D85000200F0000201600002075
:10069000D4900020040000200C0000203203002031
:1006A000286402405DE0F8480078012856D1F748F8
:1006B0008079F7490870F748007888B108460078D3
:1006C00070B9322008F0CCFAF148007840B9F2480D
:1006D0000078642804DCF0480078401CEE4908707B
:1006E000EB480078EB490870E848007AEB4908705D
:1006F000EB48007888B10846007870B9322008F0DD
:10070000AFFAE648007840B9E6480078642804DC8F
:10071000E4480078401CE3490870E0480078E0496C
:100720000870DA48807AE0490870E048007888B1BB
:100730000846007870B9322008F092FADA4800785A
:1007400040B9DB480078642804DCD9480078401CB4
:10075000D7490870D4480078D4490870142008F0AC
:100760007FFAA0E7002400BF2BE0002404E064200F
:1007700008F076FA601CC4B2CE48006808B9192C9B
:10078000F5D1192C1AD11220CB4908700820BF4985
:10079000A1F84000012008F057FA00BFBFF34F8FC7
:1007A000C648006800F4E060C5490843001DC3491D
:1007B0000860BFF34F8F00BF00BFFEE7142008F0B2
:1007C0004FFAD2E700BF15E0BE48407CBE49087032
:1007D0000846007840B9AD48B0F8C20020B94FF4DF
:1007E000617004F024FA02E00120B8490860142086
:1007F00008F036FAE8E71CB5002400250026A146DB
:10080000A246A3460020019000278046009000BF2A
:1008100039E19D48007801287ED1009801280CD14B
:10082000A448006848B9AA480078012805D117F003
:1008300084FF02209549A1F8B6009E480068C0B226
:100840000090A4480078012867D19A4808300068D1
:1008500001280ED1B8F1000F19D1FFF755FD09207D
:100860008A49A1F8B6004FF001080F20924908709C
:100870000DE0B8F1010F0AD1FFF731FD05208349E2
:10088000A1F8B6004FF0000810208B49087092487C
:100890000078002837D191480078012833D100240E
:1008A00000264FF000094FF0000A00200190BBF134
:1008B000000F07D1FFF713FD05207449A1F8B6001A
:1008C0004FF0010B7B481830006810B1012819D196
:1008D0000BE04DB9FFF718FD02206C49A1F8B600F6
:1008E00001250F20744908700CE0012D09D1FFF794
:1008F000F6FC05206549A1F8B600002510206E49D8
:10090000087000BF00BF74480078012837D17348D1
:100910000078A0BB002501E081E081E00026A94627
:10092000AB4600200190BAF1000F07D1FFF7D7FCCA
:1009300005205649A1F8B6004FF0010A5D4828305D
:10094000006810B1012819D10BE04CB9FFF7DCFCAD
:1009500002204E49A1F8B60001240F205649087024
:100960000CE0012C09D1FFF7BAFC05204749A1F89A
:10097000B600002410205049087000BF00BF564840
:100980000078B0BB5548007898BB00240025A146EC
:10099000A246A346019838B9FFF7A1FC05203B49C0
:1009A000A1F8B600012001904248183000684C4977
:1009B000D1F83812084010B1012819D10BE04EB916
:1009C000FFF7A2FC02203149A1F8B60001260F2052
:1009D000394908700CE0012E09D1FFF780FC052091
:1009E0002A49A1F8B600002610203349087000BF3C
:1009F00000BF39480078012842D1384800780128E2
:100A00003ED1B9F1000F07D1FFF769FC05201F495E
:100A1000A1F8B6004FF001090024002500262FE0C0
:100A200030480078012803D02F480078012823D1CE
:100A30002E480078F8B91F481030006818B11D48DA
:100A40001430006858B9B7B9FFF75EFC07200F49AA
:100A5000A1F8B60001270F201749087010E0012FF8
:100A60000ED1FFF746FC05200849A1F8B600002783
:100A700010201149087003E00024002500260027FB
:100A8000142008F0EDF8C4E60C00002028920020A5
:100A90001C0000201D000020220000201E0000205D
:100AA00020000020230000201F0000202100002043
:100AB0002400002010824242420000200CED00E0A1
:100AC0000000FA05A891002008000020A002404282
:100AD0000F000020130000200A0000200900002061
:100AE0000080424214000020150000200B0000206E
:100AF000002400BFC5E0F748008CF7490880F5489E
:100B0000B0F8B4004884F348C0884880F1480089B0
:100B10008880F0484089C880F04800884882F048C2
:100B200000688882EF48D0F82002C882ED48D0F8EB
:100B30001C020883EB48D0F814024883E948D0F837
:100B400038028883E748D0F82802C883E548D0F8FF
:100B500018020884DF48008E0887DE48B0F89A0043
:100B60004887E14800780881E04800780882084614
:100B7000808F372804D117F004FE0020D6498887DB
:100B8000D548C08F372804D117F0D7FD0020D249AF
:100B9000C887D7480078012809D1D348007830B9F0
:100BA000D448807C18B90120CB4948810CE0D0485A
:100BB0000078012808D1CC48007828B9CD48807C3D
:100BC00010B10020C4494881C9480078022809D1E1
:100BD000C548007830B9C848807C18B90120BE49A2
:100BE00088810CE0C2480078022808D1BE4800780D
:100BF00028B9C148807C10B10020B7498881BC4821
:100C00000078032809D1B848007830B9BB48807C07
:100C100018B90120B049C8810CE0B5480078032814
:100C200008D1B148007828B9B448807C10B10020C0
:100C3000A949C881AD48007868B9A7484089A64944
:100C400089890844A449C989084420B10020A249DF
:100C500048818881C881601C84B2642C04D100243E
:100C600000209D49A1F84A009B48B0F84A0008B905
:100C7000012000E000209749A1F8C200142007F0ED
:100C8000EFFF38E700BF04E004F07CFE642007F0CB
:100C9000E7FFF9E710B58F49B1F89A00192108F07C
:100CA000D4F88C48B0F8B200954988868949B1F8E3
:100CB000B2001A2108F0C9F805208649A1F8B6004B
:100CC0000220A1F8B20008F0ABFD012088490870AD
:100CD0002C208049A1F8400010BD10B517F02DFD63
:100CE00000207D49C88402E0142007F0B9FF7A484B
:100CF000408E0028F8D10A207749888502E0142028
:100D000007F0AEFF7448C08E0128F8D117F0F4FC4C
:100D1000002007F0A5FF17F034FD00207949087086
:100D20007949087002E0142007F09AFF6948B0F88A
:100D3000700076490988884207D0724800780328F5
:100D400003DA714800780328EDDB4FF4FA7007F0FE
:100D500087FF6048B0F870005E49088417F0EDFC2A
:100D600001205D49888500208884C88502E0142020
:100D700007F076FF5848008E0028F8D10A2056491F
:100D8000888502E0142007F06BFF5348808E01280D
:100D9000F8D117F0B1FC002007F062FF17F0F1FC6A
:100DA000002007F05DFF02E0142007F059FF4948DA
:100DB000B0F87400554909888842F5D14548B0F823
:100DC0007000444908840120434988850020C88573
:100DD00010BD10B517F0B1FC00203F49888402E037
:100DE000142007F03DFF3C48008E0028F8D10A206F
:100DF0003949888502E0142007F032FF3648808E9A
:100E00000128F8D117F078FC002007F029FF17F02F
:100E1000B8FC00203B4908703B49087002E01420F0
:100E200007F01EFF2B48B0F8720038490988884245
:100E300007D034480078012803DA334800780128C5
:100E4000EDDB4FF4FA7007F00BFF2248B0F87000AA
:100E50002049088417F071FC01201F498885002073
:100E6000C885C88402E0142007F0FAFE1A48408EB4
:100E70000028F8D10A201849888502E0142007F0DC
:100E8000EFFE1548C08E0128F8D117F035FC002080
:100E900007F0E6FE17F075FC002007F0E1FE02E027
:100EA000142007F0DDFE0B48B0F8740017490988DC
:100EB0008842F5D10748B0F870000649088401203F
:100EC000054988850020C88510BD70B504460025F9
:100ED00021E000002892002048B3002004000020F8
:100EE00024824242008042420F0000200C00002079
:100EF0000E000020D4900020E9900020FE900020F9
:100F0000D8500020230000202400002034000020BE
:100F1000142007F0A5FEF84800780128F8D1F7481A
:100F200000780128F4D1F648408F401CF4494887E6
:100F30000020F4490880F4490870F4490870F44925
:100F4000087004EB8400F34901EBC0004089EC49D0
:100F5000A1F8B40060E0E9480078012859D1E948D7
:100F60000088A0B1E74805880088042804D1E44837
:100F7000C08CE949088007E0E2480088052803D1D1
:100F8000DF48008DE44908800020DE49088004EB3A
:100F90008400E04901EBC000008B70B104EB8400D9
:100FA00001EBC000C08BD8490978884205D104EB19
:100FB0008400D84901EBC000458904EB8400D54981
:100FC00001EBC000408B70B104EB840001EBC0006A
:100FD000008CCE490978884205D104EB8400CD49C4
:100FE00001EBC000458904EB8400CA4901EBC00055
:100FF000808B70B104EB840001EBC000408CC449CD
:101000000978884205D104EB8400C24901EBC00095
:101010004589142007F024FE04EB8400BD4901EB50
:10102000C0004089A84296D1B6480088B4490884D7
:1010300004EB8400B74901EBC0008089082812D274
:10104000DFE800F0040506070810090A0BE000BFFE
:1010500000BF00BF00BF00BF17F06FFB002007F00C
:10106000FFFD00E000BF00BF04EB8400A94901EBD5
:10107000C000008930B1012805D002280ED0032815
:1010800022D116E020E0A5A015F0BAFB9C48808C88
:10109000A1490880002007F0E3FD15E0A0A015F0AD
:1010A000AFFB9748C08C9C490880002007F0D8FD12
:1010B0000AE09CA015F0A4FB9148008D9649088099
:1010C000002007F0CDFD00BF00BF04EB8400914974
:1010D00031F8300020B1012803D0022815D10AE0F0
:1010E00013E000209049087090A015F089FB0020C3
:1010F00007F0B6FD09E001208B4908708DA015F0BE
:101100007FFB002007F0ACFD00BF00BF04EB8400B4
:10111000804901EBC000408820B1012803D002289B
:1011200015D10AE013E000208449087084A015F06E
:1011300067FB002007F094FD09E001207F4908705B
:1011400081A015F05DFB002007F08AFD00BF00BF05
:1011500004EB84006F4901EBC000C08C20B1012872
:1011600003D0022815D10AE013E000207849087066
:1011700078A015F045FB002007F072FD09E0012082
:101180007349087075A015F03BFB002007F068FD5F
:1011900000BF00BF04EB84005E4901EBC000808803
:1011A00020B1012803D002280DD106E00BE017F092
:1011B00001FB002007F054FD05E017F009FB0020BB
:1011C00007F04EFD00BF00BF04EB8400514901EB66
:1011D000C000C08820B1012803D0022807D103E055
:1011E00005E017F0FCFA02E017F026FB00BF00BF95
:1011F00004EB8400474901EBC000008A38B104EBDE
:101200008401444A02EBC101088A07F01DFD04EB8A
:101210008400404901EBC000C08A052808D2DFE8FD
:1012200000F00308345BC70000204E49A1F84000DD
:10123000E7E004EB8400374901EBC000C08A49496C
:10124000A1F8400017F079FA002007F009FD46A048
:1012500015F0D6FA012007F0F7FC02E00A2007F0AB
:10126000FFFC4048B0F842000128F7D141A015F03A
:10127000C7FA012007F0E8FC17F083FA002039498B
:10128000A1F84000A1F84200BBE004EB8400214932
:1012900001EBC000C08A3349A1F8400032A015F02C
:1012A000AFFA012007F0D0FC02E00A2007F0D8FCDA
:1012B0002C48B0F844000128F7D12EA015F0A0FA70
:1012C000012007F0C1FC17F05CFA00202549A1F8C5
:1012D0004000A1F8440094E004EB84000D4901EBC8
:1012E000C000C08A1F49A1F840001FA015F088FA6D
:1012F000012007F0A9FC46E00F0000200C000020B0
:101300002892002034000020230000202400002028
:10131000220000208A5500200400002031B5B200D0
:1013200032B5B20033B5B20009000020D4B6BFAA6E
:1013300000000000D4B6B9D8000000000A00002068
:10134000BDFCBFAA00000000BDFCB9D80000000031
:101350000B000020BAF3BFAA00000000BAF3B9D80E
:101360000000000048B30020C7EBC7F3BDF8C8EB8E
:1013700000000000D4CAD0EDBDF8C8EB00000000AA
:101380000A2007F06DFCF948B0F846000128F7D1B3
:10139000AFF2200015F034FA012007F055FC17F0E9
:1013A000F0F90020F149A1F84000A1F8460028E03A
:1013B00004EB8400EE4901EBC000C08AEB49A1F8C0
:1013C0004000AFF25C0015F01BFA012007F03CFC76
:1013D00002E00A2007F044FCE448B0F84800012885
:1013E000F7D1AFF2700015F00BFA012007F02CFCDA
:1013F00017F0C7F90020DD49A1F84000A1F8480026
:1014000000BF00BF04EB8400D94901EBC000C089D4
:10141000052823D2DFE800F0030E13181D0000207A
:10142000D249A1F84C00A1F84E00A1F85000A1F853
:10143000520013E00120CD49A1F84C000EE001203C
:10144000CA49A1F84E0009E00120C849A1F850009E
:1014500004E00120C549A1F8520000BF00BF04EB21
:101460008400C34901EBC000808C05282DD2DFE841
:1014700000F003040E18220027E002E00A2007F023
:10148000EFFBBA48B0F854000028F7D01DE002E0A6
:101490000A2007F0E5FBB548B0F856000028F7D061
:1014A00013E002E00A2007F0DBFBB048B0F8580078
:1014B0000028F7D009E002E00A2007F0D1FBAB4892
:1014C000B0F85A000028F7D000BF00BF04EB84003A
:1014D000A74901EBC000808A20B1012803D002286F
:1014E00007D103E005E0FFF774FC02E0FFF7F5FB2E
:1014F00000BF00BF04EB84009D4901EBC000808960
:10150000082878D2DFE800F0040506111C77274F81
:1015100071E070E017F0F0F8002007F0A1FB17F081
:1015200030F9002007F09CFB65E017F0F0F8002090
:1015300007F096FB17F025F9002007F091FB5AE021
:1015400017F0F0F8002007F08BFB17F01AF90020D5
:1015500007F086FB4FE004EB8400854901EBC000F7
:10156000408A8449088084480078844908700020B3
:1015700007F076FB01208249087004EB84007C4967
:1015800001EBC000808C20B97C480078FEF7C6FED5
:1015900008E004EB8401764A02EBC10191F82400D3
:1015A000FEF7BCFE27E004EB8400714901EBC000AC
:1015B000408A70490880704800787049087000209F
:1015C00007F04EFB01206E49087004EB8400684967
:1015D00001EBC000808C20B968480078FEF74BFF13
:1015E00008E004EB8401624A02EBC10191F8240097
:1015F000FEF741FF00BF00BF70BD002061490870C9
:101600000220614908706148C08C614908807047B8
:1016100000BF28E15F480078012828D158480078A9
:101620000128FAD15948B0F8B200012820D1FFF7BB
:10163000E4FF0020554908844887002404E0204640
:10164000FFF743FC601C84B25048008FA042F6DCD8
:1016500000204E49A1F8B2004449A1F84000A1F889
:101660004C00A1F84E00A1F85000A1F85200F7E09C
:101670004648B0F8B2000228F9D1FFF7BEFF0020BB
:1016800042490884A1F89E000024C9E03F48B0F810
:101690009E00401C3D49A1F89E0004EB84003E4999
:1016A00001EB4000408830B1012821D0022848D009
:1016B000032873D187E004EB8400374931F8100028
:1016C00032490886088E07F0D1FB3049088E07F0B2
:1016D000F0FB00202D494887002504E02846FFF74D
:1016E000F4FB681C85B22948008FA842F6DC94E020
:1016F00004EB8400284931F8106019E0234806867D
:101700000146088E07F0B2FB2049088E07F0D1FB96
:1017100000201E494887002504E02846FFF7D5FB36
:10172000681C85B21948008FA842F6DC701C86B28E
:1017300004EB8400184901EB40008088B042DDDAF8
:101740006BE004EB8400144931F8106032E00F487C
:1017500006860146088E07F089FB0C49088E07F0C3
:10176000A8FB00200949488700251DE048B3002058
:101770008A550020160000200E0000200D000020D9
:101780000F000020090000201100002028920020F6
:10179000040000200C0000203A6900203CE02846AC
:1017A000FFF793FB681C85B2FE48008FA842F6DC69
:1017B000701E86B204EB8400FB4901EB4000808878
:1017C000B042C4DD29E004EB8400F74931F8100091
:1017D000F4490886088E07F049FBF249088E07F0A5
:1017E00068FB00260FE00020EE494887002504E052
:1017F0002846FFF76AFB681C85B2EA48008FA842BA
:10180000F6DC701C86B204EB8400E74901EB400073
:101810008088B042E7DC00E000BF00BF601C84B2FB
:10182000E048B0F89C00A0423FF730AF0020DD490F
:10183000A1F8B200DD49A1F84000A1F84C00A1F8E0
:101840004E00A1F85000A1F85200D948007838B1F4
:10185000D7480078D349A1F840000020D449087047
:101860000A2007F0FDF9D5E610B507F0E7FAD148F0
:10187000008806287DD00620CE49088000204880B8
:101880008880C8800520088148814FF4C87088810D
:101890000020C8810F2008824FF4967048820020F3
:1018A00088820A20C88240F24320088300204883AF
:1018B0008883C88308844884FA2088844FF4AA70F7
:1018C000C8844FF4C8700885002048858885C8857D
:1018D000012008864886002088860120C8860320CB
:1018E00008870220488700208887C887A1F8400021
:1018F000A1F84200A1F84400A1F84600A1F8480070
:10190000A1F84A00A1F84C00A1F84E00A1F850003F
:10191000A1F85200A1F85400A1F85600A1F858000F
:10192000A1F85A00A1F85C00A1F85E00A1F86000DF
:10193000A1F86200A1F86400A1F866000120A1F8F6
:1019400068000020A1F86A00A1F86C00A1F86E0000
:10195000A1F87000A1F87200A1F874000220A1F8AB
:1019600076002820A1F878002D20A1F87A003220F6
:1019700000E056E0A1F87C003C20A1F87E00412068
:10198000A1F880005020A1F882005F20A1F8840017
:101990006420A1F886006920A1F888007820A1F8C9
:1019A0008A008720A1F88C008C20A1F88E00962058
:1019B000A1F890009B20A1F89200A020A1F894002B
:1019C0003720A1F896009120A1F898000020A1F8F6
:1019D0009A00A1F89C00A1F89E00A1F8A000A1F82F
:1019E000A200A1F8A400A1F8A600A1F8A800A1F8FF
:1019F000AA00A1F8AC00A1F8AE00A1F8B000A1F8CF
:101A0000B20007F02CFA4FF4FA716B4817F044F863
:101A100007F047FA4FF4FA71684817F03DF807F0FD
:101A2000E8FC6448B0F868005E49A1F868006449C1
:101A3000087008460078401C08705E48B0F87800CE
:101A40005849A1F878005B48B0F87A00A1F87A000C
:101A50005848B0F87C00A1F87C005648B0F87E00E9
:101A6000A1F87E005348B0F88000A1F880005148EA
:101A7000B0F88200A1F882004E48B0F88400A1F8C6
:101A800084004C48B0F88600A1F886004948B0F8B8
:101A90008800A1F888004748B0F88A00A1F88A00B9
:101AA0004448B0F88C00A1F88C004248B0F88E0091
:101AB000A1F88E003F48B0F89000A1F890003D4892
:101AC000B0F89200A1F892003A48B0F89400A1F85A
:101AD00094003848B0F89600A1F896003548B0F860
:101AE0009800A1F898003349098A2E4A11820846C5
:101AF00017F060FB334AC2E906012E49498A294A98
:101B00005182084617F056FB2E4AC2E908012949BE
:101B1000898A244A9182084617F04CFB294AC2E977
:101B20000A012449498B1F4A5183084617F042FB9A
:101B3000254AC2E906011F49898B1A4A9183084642
:101B400017F038FB204AC2E908011A49C98B154A27
:101B5000D183084617F02EFB1B4AC2E90A0115483B
:101B60008089104988811348C08AC8821148808CB6
:101B700088841048C08CC8840E48008D08850D48A4
:101B8000008E08860B48408EA1F89A000020A1F82C
:101B9000B2000848C08EA1F870000648008FA1F876
:101BA000720013E0289200203A69002048B3002018
:101BB00000000020D8500020A251002052650020D3
:101BC00036030020C8B3002028B40020FE48408F10
:101BD000A1F87400FC48008B0883FB48B0F876003D
:101BE000A1F8760007F01CFEF8488089F8490880C3
:101BF000F648C08AF7490880F448808CF649088086
:101C0000F248C08CF5490880F048008DF4490880FE
:101C1000ED480089ED49A1F8C400EB484089A1F8DE
:101C2000C600088E07F022F9E849088E07F041F94E
:101C300007F0E8FB10BD8AB000BFFFF715FE0120DA
:101C4000E8498884C884088548858885C88501F066
:101C500080B9DE48B0F8400009382D2881F0748141
:101C6000DFE810F02D0072099E007209E8000601FD
:101C70005001720972097209DA01DB0172097209F5
:101C8000D301DC01DD01FE037209720972097209D8
:101C90007209720972097209E504E604E704E804AE
:101CA0007209800772098907B807D407FB07720910
:101CB00084085008A708D208FE082A09560968E0D7
:101CC000C9480079012802D116F005FD21E0C64877
:101CD0004079012802D116F0F3FC1AE0C248407A9C
:101CE000012802D116F07BFD13E0BF48807A01285D
:101CF00002D116F0A1FD0CE0BB48407B012802D1C7
:101D000016F058FD05E0B848807B012801D116F097
:101D10005FFDB6480078012820D1B348C07A012879
:101D200001D116F02EFDB048007B012802D116F03B
:101D300004FD13E0AC488079012802D116F0DCFCE8
:101D40000CE0A948C079012802D116F0E0FC05E0BA
:101D5000A548007A012801D116F0E4FC9B4880894F
:101D60009B490988884211D0984880899849088001
:101D7000084601884FF4FA7016F0EAFC944800888F
:101D8000914988818889062107F05FF80A2006F0CA
:101D900067FF8E48B0F84000092891D001F0D5B80F
:101DA0003DE08A48808C8C4908808848C08C8B49EB
:101DB00008808648008D8A4908808448808C824942
:101DC00088848248C08CC8848048008D08857F48FC
:101DD00090F86800401C864908707C48B0F868009C
:101DE0007949A1F868007948B0F87000C88677484A
:101DF000B0F8720008877548B0F8740048877348D7
:101E0000B0F8C40008817148B0F8C60048816F4836
:101E1000B0F87600A1F876000A2006F021FF6B48A2
:101E2000B0F840000B28BCD065220021664814F0B1
:101E30003FFBB3E76F4800686B4948766E48D0F8BF
:101E40001C0288766C48D0F82002C8766A48D0F820
:101E5000140208776848D0F8280248776648D0F816
:101E6000380288776448D0F8180281F82E0095E788
:101E70005D48C07F012803D100205A4988842BE0A7
:101E8000594890F82000012803D100205549C88402
:101E900022E0554890F82100012803D10020514943
:101EA000088519E0504890F82200012803D100204D
:101EB0004C49488510E04C4890F82300012803D194
:101EC00000204849888507E0474890F82400012809
:101ED00002D100204349C885424890F83000424969
:101EE00081F825003F4890F8320081F826003D48EF
:101EF00090F8340081F827003A4890F8360081F8CD
:101F000028004BE756E03149088A17F053F93B4A5D
:101F1000C2E906012D49488A17F04CF9374AC2E94F
:101F200008012A49888A17F045F9344AC2E90A01AA
:101F30002649488B17F03EF9314AC2E90601234988
:101F4000888B17F037F92E4AC2E908011F49C88B60
:101F500017F030F92A4AC2E90A011C48C08A1D4913
:101F600008801A4880891A490880084601884FF479
:101F7000FA7016F0EDFB1548C08A1349C882134861
:101F8000008A08821148408A48821048808A8882E4
:101F90000E48408B48830D48808B88830B48C08B4C
:101FA000C8830A48808988810848008B08830A20F2
:101FB00006F056FE0548B0F840000F28A3D05A227C
:101FC000002101481EE00000D85000202892002087
:101FD00004000020400000204C0000204E000020A3
:101FE0005000002048B30020A89100200C000020E1
:101FF000360300202482424200804242C8B30020BF
:1020000028B4002014F054FAC8E6FA48008E10B93B
:102010000120F8490886C1E600BF00BF00BF04E206
:10202000F448B0F84000222847D10120F149A1F836
:102030006A003DE0EF48B0F86A0018B90120ED49A8
:10204000A1F86A00EB48B0F86A00B0F5FA7F03DD4A
:102050000120E849A1F86A00E648B0F86A00E649BC
:102060000988884207D0E349B1F86A0006F0FEFE0D
:10207000E049A1F86E00DF48B0F85200012814D101
:10208000DC49B1F86A0006F014FFDA49088E06F060
:1020900033FF06F063FFD748008F10B10120D54908
:1020A00048870020D349A1F852000A2006F0D8FD45
:1020B000D048B0F840002228BCD0CE48B0F852003A
:1020C000022843D1CB48008F401CCA4908870846E4
:1020D000008F48870020C949088007F0F5F830E0F4
:1020E000C648008818B1C5480088C2490884C1485C
:1020F000B0F84A0001280ED10020BE49A1F84A00DC
:1021000007F016F8BB49088E06F0F6FE0020B94924
:10211000A1F8520012E0B748B0F84A0002280DD1E9
:102120000020B449A1F84A000846008F401E0887E5
:102130000846008F48870020A1F852000A2006F0C8
:102140008FFDAC48B0F852000228C9D0A948B0F8B9
:102150005200032867D1A748008F401CA549088773
:102160000846008F08B9012048870020A34908804D
:1021700007F0AAF852E0A148008818B19F480088EB
:102180009C4908849B48B0F84A0001282CD10020C3
:102190009849A1F84A000846048F16E0002510E08F
:1021A000601E00EB8000964901EBC00030F815007E
:1021B00004EB8401924A02EBC10121F81500681C6E
:1021C00085B2142DECDB601E84B28A48408FA04299
:1021D000E4DD06F0ADFF8749088E06F08DFE002095
:1021E0008449A1F8520016E08248B0F84A0002285B
:1021F00011D100207F49A1F84A000846008F401EF7
:1022000008870846408F012801D100204887002018
:102210007849A1F852000A2006F022FD7548B0F86E
:1022200052000328A7D07348B0F85200042835D1D3
:102230000020724908802CE07048008818B16F486F
:1022400000886C4908846B48B0F84A0001280ED118
:1022500000206849A1F84A0006F06AFF6549088E27
:1022600006F04AFE00206349A1F852000EE06148E2
:10227000B0F84A00022809D100205E49A1F84A00BE
:1022800006F06CFE00205B49A1F852000A2006F01F
:10229000E7FC5848B0F852000428CDD05548B0F8B3
:1022A000520005284CD15348008F002844DD514886
:1022B000008F002823DD4F48008F4E49498F884208
:1022C0001DD04C48448F16E0002510E004EB84003C
:1022D0004B4901EBC00030F81510601E00EB800088
:1022E000474A02EBC00020F81510681C85B2142D77
:1022F000ECDB601C84B23F48008FA042E4DC3D4828
:10230000008F401E3B4908870846008F10B9002007
:1023100048870BE03748008F401C3649498F884278
:1023200004D13448408F401E324948873149088ED5
:1023300006F0E2FD06F012FE00202E49A1F8520040
:102340002C48B0F85200D8BB2A48008F002808DD7E
:102350002848408F28B901202649488706F0FEFD0D
:1023600005E02448008F10B9002022494887214801
:10237000008E24490988884210D01E48008E2149C9
:1023800008801C49088E06F094FD1A48008F00282A
:1023900002DD01201749488706F0E0FD1548B0F836
:1023A0004600012811D100201249A1F84600084634
:1023B000408F012805DD0846408F401E488704E015
:1023C00030E00C48008F0B4948870A48B0F84600B7
:1023D00002281FD100200749A1F846000846408F77
:1023E000098F884210DA0348408F401C0149488712
:1023F00010E0000028920020CC00002034000020D3
:102400008A550020CA000020FB48408F10B10120EF
:10241000F9494887F848008F10B906F055FF01E0E8
:1024200006F09CFD0A2006F01BFCF348B0F84000C3
:1024300013283FF4F5ADF048B0F840001428F8D068
:10244000ED48B0F840001828F3D0EB48B0F8400051
:102450001928EED0E848B0F840002228E9D09DE4E1
:10246000E648B0F87800E449B1F8781088427CD1A9
:10247000E248B0F87A00E049B1F87A10884279D1A0
:10248000DE48B0F87C00DC49B1F87C10884271D19C
:10249000DA48B0F87E00D849B1F87E10884269D198
:1024A000D648B0F88000D449B1F88010884261D194
:1024B000D248B0F88200D049B1F88210884259D190
:1024C000CE48B0F88400CC49B1F88410884251D18C
:1024D000CA48B0F88600C849B1F88610884249D188
:1024E000C648B0F88800C449B1F88810884241D184
:1024F000C248B0F88A00C049B1F88A10884239D180
:10250000BE48B0F88C00BC49B1F88C10884231D17B
:10251000BA48B0F88E00B849B1F88E10884229D177
:10252000B648B0F89000B449B1F89010884221D173
:10253000B248B0F89200B049B1F89210884219D16F
:10254000AE48B0F89400AC49B1F89410884211D16B
:10255000AA48B0F89600A849B1F89610884209D167
:10256000A648B0F89800A44900E003E0B1F898103C
:1025700088425BD0A048B0F87800A049A1F8780064
:102580009D48B0F87A00A1F87A009B48B0F87C002A
:10259000A1F87C009848B0F87E00A1F87E0096482B
:1025A000B0F88000A1F880009348B0F88200A1F84C
:1025B00082009148B0F88400A1F884008E48B0F8F9
:1025C0008600A1F886008C48B0F88800A1F8880041
:1025D0008948B0F88A00A1F88A008748B0F88C00D2
:1025E000A1F88C008448B0F88E00A1F88E008248D3
:1025F000B0F89000A1F890007F48B0F89200A1F8E0
:1026000092007D48B0F89400A1F894007A48B0F8A0
:102610009600A1F896007848B0F89800A1F89800C4
:1026200011223C217548783013F042FF1FE400BFAF
:1026300000BF00BF80E27048B0F8AA00F0BB6E484F
:10264000B0F89C0000280ADD6B48B0F89E0030B955
:1026500001206949A1F89E0006F0D4FE0DE066480D
:10266000B0F89C0048B900206349A1F89E00A1F889
:10267000A000A1F8A400A1F8A2005F48B0F89A0059
:102680005F490988884206D05B48B0F89A005C49E7
:10269000088006F0B7FE5848B0F8A800012818D105
:1026A00000205549A1F8A8000846B0F89E0001286E
:1026B00008DD0846B0F89E00401E00E032E0A1F8B8
:1026C0009E0026E04C48B0F89C004B49A1F89E00C3
:1026D0001FE04948B0F8A80002281AD10020464956
:1026E000A1F8A8000846B0F89E00B1F89C108842F6
:1026F00007DA4148B0F89E00401C3F49A1F89E000F
:1027000007E03D48B0F89E0018B101203A49A1F811
:102710009E003948B0F89C0010B906F067FF01E050
:1027200006F03DFF3448B0F84000242845D1012090
:102730003149A1F8AC003BE02F48B0F8AC0018B923
:1027400001202D49A1F8AC002B48B0F8AC00B0F541
:10275000FA7F03DD01202849A1F8AC002648B0F833
:10276000AC0028490988884207D02349B1F8AC0059
:1027700006F02FFE2049A1F8AE001F48B0F8AA00CD
:10278000012812D11C49B1F8AC0006F0A7FE06F0F2
:10279000C7FD1948B0F89C0018B101201649A1F8EE
:1027A0009E0000201449A1F8AA000A2006F058FA59
:1027B0001148B0F840002428BED00F48B0F8AA0055
:1027C000022876D10C48B0F89C00401C0A49A1F8B8
:1027D0009C000846B0F89C00A1F89E0006F006FF99
:1027E00082E00548B0F8A20070B101280DD002289F
:1027F00028D003284BD141E028920020D850002057
:10280000CE000020D000002042E0FD48B0F8A40037
:10281000FB49B1F8A010884213DCF948B0F8A000D9
:10282000B0F5FA7F06D1F648B0F8A000F449A1F857
:10283000A40006E0F248B0F8A000401CF049A1F85E
:10284000A40025E0EE48B0F8A400ED49B1F8A010CE
:10285000884212DBEA48B0F8A000012806D1E84817
:10286000B0F8A000E649A1F8A40006E0E448B0F8FA
:10287000A000401EE249A1F8A40009E0E048B0F839
:10288000A40018B90120DE49A1F8A40000E000BFAF
:1028900000BFDB48B0F8A60001280BD10020D849C2
:1028A000A1F8A60006F03CFD0020D549A1F8AA0039
:1028B00017E01FE0D248B0F8A600022811D100208E
:1028C000CF49A1F8A6000846B0F89C00401EA1F828
:1028D0009C000846B0F89C00A1F89E000020A1F8DA
:1028E000AA000A2006F0BCF9C548B0F8AA000228E0
:1028F0003FF477AFC248B0F8AA00032870D1C048AF
:10290000B0F89C00401CBE49A1F89C000846B0F8F5
:102910009E0010B90120A1F89E0006F067FE7EE03F
:10292000B748B0F8A20030B1012805D0022820D065
:10293000032843D139E042E0B148B0F8A400B049DF
:10294000B1F8A010884213DCAD48B0F8A000B0F593
:10295000FA7F06D1AA48B0F8A000A949A1F8A400BE
:1029600006E0A748B0F8A000401CA549A1F8A400C3
:1029700025E0A348B0F8A400A149B1F8A01088420E
:1029800012DB9F48B0F8A000012806D19C48B0F89F
:10299000A0009B49A1F8A40006E09948B0F8A00067
:1029A000401E9749A1F8A40009E09548B0F8A4009A
:1029B00018B901209249A1F8A40000E000BF00BFAF
:1029C0008F48B0F8A60001280BD100208C49A1F84F
:1029D000A60006F015FE00208949A1F8AA001BE018
:1029E00023E08748B0F8A600022815D100208449CA
:1029F000A1F8A6000846B0F89C00401EA1F89C0073
:102A00000846B0F89E00012802D10020A1F89E00DF
:102A100000207B49A1F8AA000A2006F021F9784895
:102A2000B0F8AA0003283FF47BAF7548B0F8AA00BD
:102A3000042873D16DE07248B0F8A20030B10128CB
:102A400005D0022820D0032843D139E042E06C4869
:102A5000B0F8A4006A49B1F8A010884213DC6848B5
:102A6000B0F8A000B0F5FA7F06D16548B0F8A00034
:102A70006349A1F8A40006E06148B0F8A000401C3A
:102A80005F49A1F8A40025E05D48B0F8A4005C49C6
:102A9000B1F8A010884212DB5948B0F8A000012814
:102AA00006D15748B0F8A0005549A1F8A40006E0A7
:102AB0005348B0F8A000401E5149A1F8A40009E015
:102AC0004F48B0F8A40018B901204D49A1F8A4005E
:102AD00000E000BF00BF4A48B0F8A60001280AD1B4
:102AE00000204749A1F8A60006F01AFC002044493E
:102AF000A1F8AA000AE04248B0F8A600022805D1D1
:102B000000203F49A1F8A600A1F8AA000A2006F07B
:102B1000A7F83B48B0F8AA0004288CD03848B0F891
:102B2000AA00052805D106F0EFFD00203449A1F8E0
:102B3000AA000A2006F094F83148B0F84000232893
:102B40003FF479AD2E48B0F840002428F8D02C4846
:102B5000B0F840002528F3D02948B0F840002628D6
:102B6000EED0F2E12648B0F89A0018B901202449C5
:102B7000A1F89A00E9E127E02148B0F8BC0001285B
:102B80001FD11F49088E182106F05FF91C48B0F8C4
:102B9000B2001C4988861A49B1F8B2001A2106F021
:102BA00054F900201649A1F8BC0006F039FE0120B6
:102BB0001349A1F8B200144908702C201049A1F85B
:102BC00040000A2006F04CF80D48B0F840002A28D2
:102BD000D2D0BAE10DE00A48B0F8BA00012805D118
:102BE000FEF758F800200649A1F8BA000A2006F0BE
:102BF00037F80348B0F840002B28ECD0A5E10000DE
:102C000028920020D85000200E0000201FE0FA4833
:102C10000079012802D115F05EFD05E0F648407903
:102C2000012801D115F04CFDF448007801280BD1A2
:102C3000F148C07A012801D115F0A3FDEE48007BD0
:102C4000012801D115F079FD0A2006F009F8EC48B9
:102C5000B0F840002C28DAD077E14DE0E848B0F831
:102C6000B800012845D10020E549A1F8B800A1F835
:102C7000B200A1F8B60015F060FD0120E149888599
:102C8000E14908700020DF49A1F84000A1F84C009C
:102C9000A1F84E00A1F85000A1F85200DB480078DE
:102CA00040B1DA480078D649A1F840000020D74961
:102CB000087003E01020D249A1F8400009A9D448C7
:102CC0000EF032FB09A8032100220592CDE906216E
:102CD0000890104680210C22CE4BCDE90132CDE97F
:102CE00003100B200023CC4ACCA10090C8480EF062
:102CF000C7F90A2005F0B4FFC148B0F840002D28FC
:102D0000ACD022E10020BE49A1F8D00028E0BC48A8
:102D1000B0F8D200012820D1B948B0F8CE004AF26C
:102D2000681188420AD10120B549A1F8D00005F008
:102D30008BFF0820B249A1F840000AE00020B0490A
:102D4000A1F8D000C82005F08BFF0220AC49A1F803
:102D5000D0000020AA49A1F8D200142005F080FF7D
:102D6000A748B0F840003028D1D0EEE01BE0A448DE
:102D7000B0F8D400012813D1A148B0F8CE004AF22F
:102D80006811884204D108209D49A1F8400003E061
:102D900030209B49A1F8400000209949A1F8D400B7
:102DA000142005F05DFF9648B0F840002F28DED0D3
:102DB000CBE001209249A1F89A001FE09048B0F8BA
:102DC0009A008F49A1F8D8000846B0F8D8004FF60D
:102DD000FF7101EAC0008A49A1F8DA000846B0F89C
:102DE000D600012807D10020A1F8D600312087495C
:102DF0000870FDF74FFF142005F032FF8048B0F84F
:102E000040003128DAD0A0E007207D49A1F89A00DF
:102E100020E07B48B0F89A00801F7949A1F8DE00D5
:102E20000846B0F8DE004FF6FF7101EAC0007449B1
:102E3000A1F8E0000846B0F8DC00012807D1002026
:102E4000A1F8DC00322071490870FDF723FF14203F
:102E500005F006FF6A48B0F840003228D9D074E087
:102E60000D206749A1F89A0020E06548B0F89A0063
:102E70000C386349A1F8E4000846B0F8E4004FF6C6
:102E8000FF7101EAC0005E49A1F8E6000846B0F80B
:102E9000E200012807D10020A1F8E20033205B49BD
:102EA0000870FDF7F7FE142005F0DAFE5448B0F87C
:102EB00040003328D9D048E013205149A1F89A00A6
:102EC00020E04F48B0F89A0012384D49A1F8EA00C6
:102ED0000846B0F8EA004FF6FF7101EAC000484921
:102EE000A1F8EC000846B0F8E800012807D100205E
:102EF000A1F8E800342045490870FDF7CBFE142006
:102F000005F0AEFE3E48B0F840003428D9D01CE0B1
:102F100019203B49A1F89A0010E03948B0F8EE00BA
:102F2000012808D100203649A1F8EE0035203749A4
:102F30000870FDF7AFFE142005F092FE3048B0F89F
:102F400040003528E9D000E000BF00BF142005F0A4
:102F500087FEFEF77EBE86B04FF0000AD346002003
:102F600005900490039000260027029001900090A5
:102F700040F255244FF4FA758046814600BF6DE15A
:102F80001F48B0F8B20000287ED11C480078012804
:102F90007BD1BAF1000F05D12348C078012801D1B7
:102FA00015F0CBFB2048807820B92048007808B97C
:102FB00015F0E7FB1D4800780028E9D11A48007990
:102FC00001280AD118484079012806D1029820B971
:102FD000FDF772F90120029039E0BBF1010F29D110
:102FE0001148007938B9FDF747F90D2010490870EC
:102FF000002002902BE01DE0A89100200C00002092
:103000002892002048B300200E000020000000207D
:10301000241C0020E81C0020111600085461736B6A
:1030200035207461736B00007B0000200F000020CE
:10303000420000200598012809D1FE48407930B9A6
:10304000FDF72AF90E20FC49087000200290F9488B
:10305000807910BB019818B9FDF706F9012001909D
:10306000A01E84B2022C00DA022422460421F34876
:1030700011F0A0FCB4F5C87F4FDAA81C85B240F26D
:10308000B630854203DD01E0E5E0A0E005462A46D2
:103090000221EA4811F08EFC3FE0E648C07908BB07
:1030A000009818B9FDF7E0F801200090A01C84B248
:1030B00040F2E630844200DD044622460421DF4827
:1030C00011F078FCB4F52F7F27DDA81C85B240F203
:1030D000B630854200DD05462A460221D74811F068
:1030E00069FC1AE0D648008BB0F5C87F07DDD448EC
:1030F000008BB0F5487F02DAD148048B01E040F242
:1031000055244FF4FA7522460421CC4811F052FCA4
:103110002A460221C94811F04DFCC648007908BB77
:10312000C848006840B1C7481030006820B1C548A1
:103130001038006801280AD1B8F1000F36D1FDF728
:10314000E3F84FF001081120BB4908702EE0B8F1F8
:10315000010F2BD1FDF7C3F84FF000081020B6493E
:10316000087023E0B3484079E8B9B64808380068E9
:1031700018B1B448001F006850B9B9F1000F15D15B
:10318000FDF7C2F84FF001091120AB4908700DE0BE
:10319000B9F1010F0AD1FDF7ACF84FF0000910208A
:1031A000A549087002E04FF00008C146049830B904
:1031B000A0488079012802D10020019007E00398FF
:1031C00028B99C48C079012801D100200090012E27
:1031D0000FD19848007A60B901209B49C87032200D
:1031E00005F03EFD0020984988700B209249087038
:1031F00007E036B98F48007A012802D192498870D9
:10320000C870012F0FD18B48407A60B901208E49D8
:103210008870322005F024FD00208B49C8700C20F6
:103220008549087007E037B98248407A012802D101
:103230008549C87088707F4890F803A090F804B062
:10324000407905907B48807904907A48C079039052
:103250007848067A477A142005F002FD90E600BF10
:1032600011E07A48007801280AD1794908603220B3
:1032700005F0F6FC00207749C1F88C02734908700C
:10328000142005F0EDFCECE700BF12E001207249CC
:103290000860724948704FF4967005F0E1FC002018
:1032A0006F49C1F8A0026D4948704FF4967005F05F
:1032B000D7FCEBE700BF04E001F01FFE142005F08F
:1032C000CFFCF9E700BF04225B21664813F0CFF87A
:1032D000644800885A49C88590E162480088584986
:1032E000C98D884231D05648C08D5E49088004227D
:1032F0005B215C4813F0DCF85A48008818B90020BC
:1033000013F0ACFA21E057480088012802D113F0ED
:10331000A5FA1AE053480088022802D113F09EFA59
:1033200013E050480088032802D113F097FA0CE00C
:103330004C480088042802D113F090FA05E049486F
:103340000088052801D113F089FA4448807C0128BF
:1033500014D144484088401C42494880084640886F
:10336000092801DD0920488004225B213D4813F033
:103370009FF83C49887813F0BEFA96E03748C07C45
:10338000012814D137484088401E364948800846F5
:103390004088012801DA0120488004225B2131485D
:1033A00013F086F82F49887813F0A5FA7DE02B48B2
:1033B000807D012814D12B488088401C29498880B1
:1033C00008468088092801DD0920888004225B21C5
:1033D000244813F06DF82349087913F007FB64E0E3
:1033E0001E48C07D012814D11E488088401E1D49FA
:1033F000888008468088012801DA0120888004221C
:103400005B21184813F054F81649087913F0EEFAC6
:103410004BE01248007D01282FD11248C088401C83
:103420001049C8800846C088092801DD0920C880E5
:10343000042219E07B000020420000200008004028
:10344000289200202882424271000020D4010020EE
:103450008C02404200004042A0824042A8910020DD
:1034600000804042440000205B21FE4813F020F819
:10347000FC49887913F035FB17E0FB48407D0128B3
:1034800013D1F848C088401EF649C8800846C08855
:10349000012801DA0120C88004225B21F14813F0E1
:1034A00007F8F049887913F01CFBF04800781628DB
:1034B0000CD2DFE800F00B0C131A21282F363D4404
:1034C0004B525960676E757C838A919892E0002018
:1034D000E6490870E6A013F093F98BE00020E34979
:1034E0000870E5A013F08CF984E00020DF49087033
:1034F000E3A013F085F97DE00020DC490870E2A02C
:1035000013F07EF976E00020D8490870E0A013F0AF
:1035100077F96FE00020D5490870DFA013F070F94B
:1035200068E00020D1490870DDA013F069F961E07E
:103530000020CE490870DCA013F062F95AE00020A8
:10354000CA490870DAA013F05BF953E00020C749BC
:103550000870D9A013F054F94CE00020C34908705A
:10356000D7A013F04DF945E00020C0490870D7A05E
:1035700013F046F93EE00020BC490870D6A013F0D5
:103580003FF937E00020B9490870D6A013F038F9A8
:1035900030E00020B5490870D5A013F031F929E0DA
:1035A0000020B2490870D7A013F02AF922E00020C9
:1035B000AE490870D6A013F023F91BE00020AB49F8
:1035C0000870D9A013F01CF914E00020A749087076
:1035D000D7A013F015F90DE00020A4490870D6A07B
:1035E00013F00EF906E00020A0490870D4A013F0F3
:1035F00007F900BF00BF142005F032FB6DE608B5E7
:103600000024002500BF3BE0CF48007801281DD1F1
:103610000020CE490870012C00D10024012D2CD1AE
:103620006946CB480EF0A2FB0020CA4908704870DA
:1036300001208870C87000200871012048710020A6
:103640008871C87108724872002516E00120BF49D0
:10365000087025B96946BE480FF02BF9012564B9F9
:103660000120BC49087048708870C87008714871A2
:103670008871C871087248720124142005F0F0FAAC
:10368000C2E72DED108B84B00027B846B94600265E
:103690000024A246A34600200290002500BFFDE3BF
:1036A0001EE0AD480078C0B900214FF4FA7015F063
:1036B0004FF8FCF701FE0120A74908700020A74938
:1036C0000870A7490870A74908700120A64908603A
:1036D000A649C1F88002A6490860142005F0C0FA86
:1036E000A44800780028DCD080E29C4800780028BC
:1036F0007CD1A1490870A148007820B1012803D0ED
:10370000022800D161E05CE100214FF4FA7015F06D
:103710001FF8FCF7B1FD9A48006818B99948008B6A
:1037200097490860964804680BE00A3C002C00DAD0
:103730000024A2B20421944811F03CF90A2005F0BB
:103740008FFA642C03DD8B4800780128EDD04FF40C
:10375000FA7005F085FA40F226214FF4FA7014F061
:10376000F7FF002507E08448007808B9681CC5B257
:10377000142005F075FA85480088052803DB834886
:103780000088192805DDC82D03DA7A480078012859
:10379000E9D000214FF4FA7014F0DAFF08E00A349F
:1037A000A2B20421784811F005F90A2005F058FA70
:1037B0007448008BA04203DD6E4800780128EED0EB
:1037C000C72D01DD14F0B9FFFBE000214FF4FA70C2
:1037D00014F0BEFFFCF750FD6948006818B969484D
:1037E000008B67490860664804680EE005E10A340A
:1037F000B4F57A7F01DD4FF47A74A2B204216248F5
:1038000011F0D8F80A2005F02BFAB4F57A7F03DA24
:10381000584800780128EAD04FF4FA7005F020FAF1
:1038200040F226214FF4FA7014F092FF002507E0D1
:103830005148007808B9681CC5B2142005F010FA88
:1038400052480088052803DB50480088192805DD08
:10385000C82D03DA474800780128E9D000214FF449
:10386000FA7095E044000020A8910020420000205A
:10387000D7D4B6AF00000000CAD6B6AF0000000033
:10388000C7B0BDF800000000BAF3CDCBD7F30000FD
:10389000BAF3CDCBD3D20000CDA3D6B9000000003F
:1038A000C6F4B6AF00000000D7F3B7D6B2E600000A
:1038B000D6D0B7D6B2E60000D3D2B7D6B2E6000073
:1038C000B2E6B1DBC9CFC9FD00000000B2E6B1DB52
:1038D000CFC2BDB500000000D2A3BFD8C7B0BDF8AD
:1038E00000000000D2A3BFD8BAF3CDCB0000000087
:1038F000C7B0B7BDD3D0D5CFB0ADA3ACC7EBC7E58C
:10390000B3FD0000D5CFB0ADD2D1C7E5B3FD000007
:10391000C7B0B7BDD3D0D5CFB0ADA3ACC7EBD0A1A6
:10392000D0C4BCDDCABB0000B8B4CEBB6F6B000016
:10393000C8A5D2BBC2A50000D7F3D7AA00000000DB
:10394000D3D2D7AA000000000C00002008000020FD
:10395000C808002071000020120000201300002081
:103960001400002015000020A482404200004242C2
:10397000840242420F0000200100002002000020CB
:10398000300000202892002000080040260000207F
:1039900014F0DEFE08E00A3CA2B20421F74811F060
:1039A00009F80A2005F05CF9F548008BA04203DA1B
:1039B000F44800780128EED0C72D01DD14F0BDFEDB
:1039C00000BF00BFF048008810B1FCF755FC01E0D3
:1039D00014F0B3FE0020ED4908700120EC49087096
:1039E0000020EC490870EC4908700120EB490860A0
:1039F000EB49C1F88002EB490860EB4800780028E9
:103A00007ED1EA48807C00287ADDE84800780228E8
:103A100076DAE648C07CDA49C881E449C97CAAEB79
:103A20000100002801DB014600E04142022905DADD
:103A3000D5490878012113F0ABFF0646DB4890F822
:103A400013A0002E0FDD304615F09DFB41EC190B45
:103A50009FEDD70B53EC102B15F0FCFB41EC180B32
:103A600015F034FB064606F24320D34908600846A9
:103A70000068002801DA00200860CF480068B0F52F
:103A80007A7F03DD4FF47A70CB490860CA4800881A
:103A900082B20421B94810F08DFFC7490968A1F529
:103AA000FA7015F070FB41EC1F0BB0EE4F0AF0EE10
:103AB0006F0A15F0F5F8B0EE40DAF0EE60DABE49C4
:103AC0000968A1F5FA7015F05EFBCDE900019DEDE6
:103AD000000B15F0E5F8B0EE40FAF0EE60FA9FED5D
:103AE000B70B53EC102B51EC1F0B15F097F941EC71
:103AF0001E0B53EC1D2B15F0ADFB41EC1C0B00E035
:103B00002CE09FEDAE0B53EC102B15F087F941EC38
:103B10001B0B9FEDAC0B53EC102B15F0CBF841ECCD
:103B2000190BAA48008815F045FB41EC1A0B53EC21
:103B3000192B15F08FFB41EC180B15F0F7FAA4497F
:103B40000880084601884FF4FA7014F001FEA0487E
:103B500000888B494880984800888880781CC7B2C4
:103B6000192F06D18D480068C0439A49C1F8A402B4
:103B700000278E48807C38BB002507E08A48007803
:103B800008B9681CC5B2142005F06AF8924800789C
:103B9000012808D18548807C28B9962D03DA794818
:103BA00000780128EAD08C48007801280CD17F48A1
:103BB000807C48B973480078012805D114F0BDFD18
:103BC0000C206F49A1F8B6006D48C08A00280ADDB4
:103BD0006B48C08A642806DA6949C98A0A3188B202
:103BE00005F03EF802E0142005F03AF87A48007833
:103BF000012804D16348007801283FF476AD1BE129
:103C000064480078E8B9002067490870FCF744FB75
:103C10004FF482714FF4FA7014F09AFD00205B4962
:103C200008705B49087001205A49087000205A4901
:103C300008700120594908605949C1F88002594962
:103C4000086059480078E0BB6448807C002838DD73
:103C50006248007802287CDA6049CA7C0299881A96
:103C6000002801DB014600E04142022906DA032177
:103C70005B48007813F08CFE4F4908605748C07CC1
:103C800002904D48008882B204213C4810F092FE18
:103C900049490968A1F5FA7015F075FA41EC1F0B56
:103CA000B0EE4F0AF0EE6F0A14F0FAFFB0EE40DA11
:103CB000F0EE60DA40490968A1F5FA7015F063FA90
:103CC00000E046E0CDE900019DED000B14F0E8FFB7
:103CD000B0EE40FAF0EE60FA9FED380B53EC102B8B
:103CE00051EC1F0B15F09AF841EC1E0B53EC1D2BF9
:103CF00015F0B0FA41EC1C0B9FED300B53EC102B80
:103D000015F08CF841EC1B0B9FED2E0B53EC102B98
:103D100014F0D0FF41EC190B2C48008815F04AFA3A
:103D200041EC1A0B53EC192B15F094FA41EC180BDB
:103D300015F0FCF926490880084601884FF4FA700E
:103D400014F006FD224800880D4948801A48008872
:103D5000888008F1010000F0FF08B8F1190F08D1C0
:103D60001048001F0068C0430D49C1F880024FF0A1
:103D700000081A48807CA8BB00253CE000080040F1
:103D8000289200200F0000202600002012000020B2
:103D9000130000201400002015000020A4824042DF
:103DA000000042428402424201000020D4900020E0
:103DB000DD2406819543E73F30000020000000002D
:103DC00000407F40000000000000F03F04000020A1
:103DD00006000020008040420E000020E9900020F4
:103DE0002B00002025E0FE48007808B9681CC5B209
:103DF000142004F035FFFB480078022808D1FA4867
:103E0000807C28B9642D03DAF84800780128EAD0CC
:103E1000F448007802280CD1F348807C48B9F34874
:103E20000078012805D114F088FC0A20F049A1F897
:103E3000B6000A2004F014FFEA480078022804D1F2
:103E4000EA48007801283FF4DBAEEBE0E94800786F
:103E5000D8B90020E2490870FCF71EFA4FF48271CD
:103E60004FF4FA7014F074FC0020E3490870E34941
:103E70000870E34908700120DE490870E1490860D4
:103E8000E149C1F88002E1490860D5480078E0BB0B
:103E9000DF48807C002838DDDD4800E0CEE0007897
:103EA000022832DADA49C97CABEB0100002801DBD9
:103EB000014600E04142022906DA0321D548007894
:103EC00013F066FDD4490860D14890F813B0D24889
:103ED000008882B20421D14810F06CFDCE490968F7
:103EE000A1F5FA7015F04FF941EC1E0BB0EE4E0A39
:103EF000F0EE6E0A14F0D4FEB0EE40DAF0EE60DAC6
:103F0000C5490968A1F5FA7000E04EE015F03BF9EB
:103F100041EC1F0BB0EE4F0AF0EE6F0A14F0C0FE3A
:103F2000B0EE40EAF0EE60EA1FED5C0B53EC102BB4
:103F300051EC1E0B14F072FF53EC1D2BCDE9000168
:103F40009DED000B51EC100B15F084F941EC1C0BAE
:103F50001FED660B53EC102B14F060FF41EC1B0BB4
:103F60001FED680B53EC102B14F0A4FE41EC190B61
:103F7000AB48008815F01EF941EC1A0B53EC192BD5
:103F800015F068F941EC180B15F0D0F8A549088038
:103F9000084601884FF4FA7014F0DAFBA148008853
:103FA000934948809C480088888009F1010000F00E
:103FB000FF09B9F1190F07D194480068C04392492D
:103FC000C1F884024FF000099148807C38BB00257D
:103FD00007E08348007808B9681CC5B2142004F0D3
:103FE0003FFE80480078032808D18948807C28B9A2
:103FF000642D03DA7D4800780128EAD079480078FA
:1040000003280CD18248807C48B978480078012880
:1040100005D114F092FB0B207549A1F8B6000A20D7
:1040200004F01EFE6F480078032804D16F48007822
:1040300001283FF40BAF142004F012FEFFF730BB51
:1040400086B000BF96E0784800886949C880774804
:10405000007808817648007848810846C18875480C
:1040600003781022684611F046FA15226946724814
:1040700014F0CDFC7048C07C704908800846008868
:10408000F8B1084600886E4908806C480088052809
:1040900007DD6A480088192803DA0020694908709A
:1040A00022E066480088062803DA02206549087085
:1040B0001AE062480088182816DD0120614908705E
:1040C00012E05F480088102803DA02205D4908707A
:1040D0000AE05B480088102803DD01205949087078
:1040E00002E000205749087057480078012836D16F
:1040F0003C48007820B1022803D003282DD116E0D7
:104100002CE03B48017A4B4803780822684611F0BE
:10411000CCFA15226946344814F079FC3248C07C48
:104120004A490870084600783149C88116E030488D
:10413000817A404803780822684611F0B6FA1522C1
:104140006946334814F063FC3148C07C314908703B
:10415000084600782649C88100E000BF07E001203A
:10416000284908602849C1F88002284908601420BD
:1041700004F076FD67E701B58CB000200A900C983A
:104180000C9006F039FC0BA80CF0A3FB0BAA012144
:10419000084608F02CFC00BF00BF00BF06F064FD1D
:1041A0000A9000BF00BF2A480078401C28490870C8
:1041B00000BF00BF0A9806F05BFD00BF00BF00BF54
:1041C0000BA8032100220592CDE906210890104694
:1041D00080210C221F4BCDE90132CDE903103BE0D9
:1041E000010000200E000020E99000200F000020B8
:1041F000289200201500002012000020130000204B
:1042000014000020A4824042000042428402424244
:10421000FE9000202C00002030000020000800400C
:1042200004000020060000208E000020A9000020CD
:10423000AA00002011000020D490002026000020B9
:1042400028000020020000200C0000202B0000208D
:1042500064010020500C002006200023AFF21F2232
:10426000FCA10090FE480CF00BFF0BA803210022DC
:104270000592CDE906210890104680210C22F94BC9
:10428000CDE90132CDE9031005200023AFF60D4240
:10429000F5A10090F8480CF0F3FE0BA803210022D2
:1042A0000592CDE906210890104680210C22F34B9F
:1042B000CDE90132CDE9031004200023AFF6C1425D
:1042C000EFA10090F2480CF0DBFE0BA803210022C6
:1042D0000592CDE906210890104680210C22ED4B75
:1042E000CDE90132CDE9031007200023EA4AEBA112
:1042F0000090ED480CF0C4FE0BA8032100220592AB
:10430000CDE906210890104680210C22E74BCDE92B
:104310000132CDE9031008200023E54AE5A1009011
:10432000E8480CF0ADFE0BA8032100220592CDE970
:1043300006210890104680210C22E34BCDE9013282
:10434000CDE9031009200023E04AE1A10090E348F1
:104350000CF096FE0BA8032100220592CDE9062160
:104360000890104680210C22DD4BCDE90132CDE9C9
:10437000031005200023DB4ADBA10090DD480CF090
:104380007FFE0BA8032100220592CDE906210890AB
:10439000104680210C22D84BCDE90132CDE9031023
:1043A0000A200023D54AD6A10090D9480CF068FE17
:1043B0000BA8032100220592CDE9062108901046A2
:1043C00080210C22D34BCDE90132CDE903100B2023
:1043D0000023D14AD1490090D1480CF051FE0BA8DE
:1043E000032100220592CDE9062108901046802184
:1043F0000C22CC4BCDE9013200230092CDE9031011
:10440000C94ACAA1CC480CF03BFE0BA803210022EC
:104410000592CDE906210890104680210C22C74B59
:10442000CDE9013200230092CDE90310C44AC5A1B1
:10443000C7480CF025FE0BA8032100220592CDE908
:1044400006210890104680210C22C24BCDE9013292
:1044500000230092CDE90310BF4AC0A1C2480CF06E
:104460000FFE0BA8032100220592CDE9062108903A
:10447000104680210C22BD4BCDE901320023009271
:10448000CDE90310BA4ABBA1BD480CF0F9FD0BA859
:10449000032100220592CDE90621089010468021D3
:1044A0000C22B84BCDE9013200230092CDE9031074
:1044B000B54AB6A1B8480CF0E3FD0BA803210022D1
:1044C0000592CDE906210890104680210C22B34BBD
:1044D000CDE9013200230092CDE90310B04AB1A129
:1044E000B3480CF0CDFD0BA8032100220592CDE9C5
:1044F00006210890104680210C22AE4BCDE90132F6
:10450000CDE903100D200023AB4AACA10090AE48CA
:104510000CF0B6FD0BA8032100220592CDE906217F
:104520000890104680210C22A84BCDE90132CDE93C
:1045300003100E200023A64AA6A10090A8480CF064
:104540009FFD0BA8032100220592CDE906210890CA
:10455000104680210C22A34BCDE90132CDE9031096
:104560000F200023A04AA1A10090A3480CF088FDD1
:1045700000BF00BF00BF06F077FB0A9000BF00BF7E
:104580009E480078401E9D49087008460078A0B9F2
:104590009B480088002809DD00BF00BF0A9806F08C
:1045A00067FB00BF00BF08F00BFE0DE000BF00BFBF
:1045B0000A9806F05DFB00BF06E000BF00BF0A9846
:1045C00006F056FB00BF00BF00BF0BA900200CF097
:1045D000ABFE0DB000BD10B58AB00024A82004F0D9
:1045E000B9FA4FF4A06001F0F5F900F0C3FA14F045
:1045F0004DF911F0D5FD00F035FE00F0A8FE00F0F9
:1046000021FF00F0ACFF01F058F801F055F94FF42C
:10461000165004F04CFB4FF4165012F009F84FF40A
:10462000E13012F043FD4FF4165011F025F94FF42C
:10463000E13012F0ABFC0FF0F3FC002342F21072F9
:10464000042170480FF00AFD002342F2107202218B
:104650006C48D9E05461736B31207461736B000056
:104660008C0B00208C0900204175746F6D6F6465A0
:10467000207461736B000000C8080020C806002089
:10468000436F6E74726F6C207461736B0000000076
:1046900004060020140F0020C53200085461736B1B
:1046A00034207461736B0000500E0020D81100207C
:1046B000B532000843616E73656E64207461736B7C
:1046C00000000000141100209C1400208932000812
:1046D00052756E4C4544207461736B00D8130020F2
:1046E000601700205F32000852464944207461730D
:1046F0006B0000009C160020241A0020572F000891
:1047000059414F4B4F4E47207461736B00000000BE
:1047100060190020E81C0020111600081C30000859
:10472000241C0020AC1F0020371C00085461736B50
:1047300036207461736B0000E81E00207022002098
:10474000850C00085461736B37207461736B000033
:10475000AC21002034250020F10A00085461736B5D
:1047600038207461736B000070240020F82700204B
:10477000F70700085461736B39207461736B000094
:1047800034270020BC2A0020C50700085461736B41
:104790003130207461736B00F8290020802D0020D7
:1047A000650700085461736B3131207461736B00CD
:1047B000BC2C002044300020A50600085461736B17
:1047C0003132207461736B00802F00200833002089
:1047D000330600085461736B3133207461736B00CE
:1047E00044320020CC350020C90500085461736BA9
:1047F0003135207461736B0008350020640100209E
:1048000028010020000800400FF028FC4FF4FA7146
:10481000042001F0A9F813F079F813F08DF813F0E3
:10482000A1F8002006231A460521009000F0AAFBFB
:10483000002006231A460521009000F045FA552075
:104840003849887000F059FB00203649887036A03E
:1048500011F0D6FF2F203549A1F8400009A807F034
:104860009DFE00BF00BF00BF06F0FEF9044600BF7A
:1048700000BF2F480078401C2D49087000BF00BFC2
:10488000204606F0F5F900BF00BF00BF09A80321CC
:1048900000220592CDE906210890104680210C22C5
:1048A000244BCDE90132CDE9031003200023AFF200
:1048B000397221A1009023480CF0E2FB00BF00BF39
:1048C00000BF06F0D1F9044600BF00BF18480078C9
:1048D000401E1749087008460078A0B91A48008899
:1048E000002809DD00BF00BF204606F0C1F900BF67
:1048F00000BF08F065FC0DE000BF00BF204606F0D9
:10490000B7F900BF06E000BF00BF204606F0B0F9CF
:1049100000BF00BF00BF09A808F009F900200AB0D5
:1049200010BD00006C000020200000002892002034
:1049300064010020040400207374617274207461A7
:10494000736B00004003002028010020704700BF67
:10495000FEE700BFFEE700BFFEE700BFFEE77047CF
:10496000704700000CB50020019000907648006868
:1049700040F480307449086000BF7348006800F458
:10498000003000900198401C0190009818B90198DF
:10499000B0F5A04FF1D16C48006800F4003010B1C0
:1049A0000120009001E0002000900098012846D1ED
:1049B00065484030006840F08050634940310860ED
:1049C0006248006840F44040604908605E48083032
:1049D00000685D49083108600846006840F40040FE
:1049E00008600846006840F4A05008605848091F55
:1049F0000860081F006840F08070091F086000BF51
:104A00005148006800F000700028F9D040F20570AD
:104A1000504908604C480830006820F003004A49BB
:104A2000083108600846006840F00200086000BFD6
:104A300045480830006800F00C000828F8D10CBD8B
:104A400010B54548006840F47000434908603E488E
:104A5000006840F001003C49086000203A490831F4
:104A60000860394800683D490840374908603C48BB
:104A7000091D0860081F006820F48020091F0860D5
:104A8000002031490C310860FFF76CFF4FF00060E7
:104A900031498039086010BD70B500200022022322
:104AA00000240221284D08352D6805F00C0020B1A6
:104AB000042806D0082834D107E02A4D2A4E356054
:104AC00033E02A4D284E35602FE01F4D2D1D2D68F7
:104AD000C5F380541C4D2D1D2D6805F03F0154B1C8
:104AE000224DB5FBF1F5184E361D3668C6F3881613
:104AF00005FB06F209E01B4DB5FBF1F5124E361D24
:104B00003668C6F3881605FB06F20F4D2D1D2D687D
:104B1000C5F301456D1C6B00B2FBF3F5124E356019
:104B200003E0104D104E356000BF00BF064D083544
:104B30002D68C5F303150E4E705D0B4D2D68C540F5
:104B4000094E356070BD0000003802400070004022
:104B500008544007003C024088ED00E0FFFFF6FEED
:104B6000103000240024F4005800002000127A00C5
:104B70005C0000201CB50121532002F0E9F94FF43C
:104B80008470009001208DF8040000208DF806004C
:104B900003208DF8050001208DF807006946414883
:104BA00001F038FF4FF44070009001208DF80400B0
:104BB00000208DF8060003208DF8050001208DF8F7
:104BC00007006946384801F025FF032000900120C6
:104BD0008DF8040000208DF8060003208DF80500F4
:104BE00001208DF807006946304801F013FF2020AE
:104BF000009001208DF8040000208DF806000320AD
:104C00008DF8050001208DF807006946284801F05D
:104C100001FF00202749086001202749C1F8A002B0
:104C20002649086026490860091D08601CBD10B5AA
:104C3000044600201F4914310860322004F010F8A7
:104C400001202049C1F8A002322004F009F8002018
:104C5000184914310860322004F002F80120194983
:104C6000C1F8A002322003F0FBFF002011491431EB
:104C70000860322003F0F4FF01201249C1F8A002BD
:104C8000322003F0EDFF00200E49C1F8A0023220CF
:104C900003F0E6FF01200B49C1F8A002204603F013
:104CA000DFFF10BD0000024000040240001002407F
:104CB000001802408C02404200804042A4824042E0
:104CC00080024242000040422DE9F0418AB0044691
:104CD0000D4616461F46DDF840800121084602F0C9
:104CE00037F90121480602F07CF94FF4C0500890D2
:104CF00002208DF8240000208DF8260003208DF876
:104D0000250001208DF8270008A9F74801F082FE50
:104D100009220B21F44801F008FF09220C21F24876
:104D200001F003FF00208DF81A008DF81B008DF8AC
:104D30001C0001208DF81D0000208DF81E008DF84C
:104D40001F008DF816808DF817408DF818608DF8CB
:104D50001950ADF8147005A9E44801F0F6F80020E8
:104D60008DF80E008DF80F0001208DF81000002046
:104D7000ADF80400ADF80600ADF80800ADF80A0083
:104D8000ADF80C0001208DF8110001A801F067F9C1
:104D900001220221D54801F061FC14208DF80000A9
:104DA00001208DF8010000208DF8020001208DF80F
:104DB0000300684600F013FE00200AB0BDE8F08151
:104DC000F0B585B007460D460024102000900190F4
:104DD00000208DF808008DF809008DF80A5000BFFA
:104DE00005E0395D0DF10B000155601C84B2AC4249
:104DF000F7DB6946BD4801F021FA0646002401E0D0
:104E0000601C84B23146B94801F0B0FA18B940F6D6
:104E1000FF708442F4DB40F6FF70844202DB012025
:104E200005B0F0BD0020FBE710B586B0002401AA54
:104E30000021AE4801F0F7FA00BF0BE09DF80F002B
:104E400080F0FF00204100F0010080F00100A8493F
:104E50000855641C082CF1DB00240DE09DF81000BF
:104E600080F0FF00204100F0010080F00101A04A25
:104E700004F108001154641C022CEFDB9DF81100B2
:104E8000552803D102219B48FFF79AFF98480078E4
:104E900008B913F020FC9648407870B9964800781D
:104EA00010B913F00DFC08E093480078012804D1F4
:104EB0009248007808B913F064FC06B010BD30B514
:104EC00085B005460021894801F030FB10B900206B
:104ED00005B030BD6A460021844801F0A4FA0024E0
:104EE00004E00DF10B00005D2855641C9DF80A00DC
:104EF000A042F6D89DF80A00EAE738B5002400255C
:104F000000BF0FE000257E48005D002800DD012580
:104F10009DF8000005FA04F10843C0B28DF80000C6
:104F2000601CC4B2082CEDDB002411E0002574499C
:104F300004F10800085C002800DD01259DF801004F
:104F400005FA04F10843C0B28DF80100601CC4B238
:104F5000022CEBDB9DF8000066490978884205D1F8
:104F60009DF801006349497888420AD09DF8000005
:104F7000604908709DF80100487003215D48FFF703
:104F80001FFF38BD2DE9F0418AB004460D46164694
:104F90001F46DDF840800121022001F0D9FF0121E8
:104FA0004FF0C06002F01DF86020089002208DF8DC
:104FB000240000208DF8260003208DF82500012014
:104FC0008DF8270008A94F4801F024FD092205218A
:104FD0004C4801F0AAFD092206214A4801F0A5FD2E
:104FE00000208DF81A008DF81B008DF81C000120A0
:104FF0008DF81D0000208DF81E008DF81F008DF823
:1050000016808DF817408DF818608DF81950ADF89E
:10501000147005A93C4800F098FF0E208DF80E0092
:1050200000208DF80F0001208DF810000020ADF851
:105030000400ADF80600ADF80800ADF80A00ADF8C0
:105040000C0001208DF8110001A801F008F80122E0
:1050500002212D4801F002FB40208DF800000120C4
:105060008DF8010002208DF8020001208DF8030068
:10507000684600F0B4FC00200AB0BDE8F08170B5CD
:1050800086B000240026002501AA00211E4801F058
:10509000CAF90198012811D100BF06E00DF10F00F7
:1050A000005D1A490855601CC4B29DF80E00A0426C
:1050B000F4DC164800781649087075E0019802285B
:1050C0002CD1002406E00DF10F00005D11490855B8
:1050D000601CC4B29DF80E00A042F4DC0D480078BC
:1050E0000D49087060E000000000024000640040CC
:1050F0007B0000206C0000200C0000200F0000202E
:105100007100002000040240006800409000002070
:10511000A800002098000020A90000200198032882
:1051200011D1002406E00DF10F00005D484908553B
:10513000601CC4B29DF80E00A042F4DC4448007824
:105140004449087030E0019804282DD1002406E07D
:105150000DF10F00005D40490855601CC4B29DF878
:105160000E00A042F4DC3C4840783B49097840EA14
:105170000126002414E0072C09DC0120A040304067
:105180006100C1F10F018840284385B206E001208B
:10519000A040304061000F3908410543601CC4B293
:1051A000102CE8DB2D48058006B070BDF0B585B049
:1051B00007460D46002414200090019000208DF831
:1051C00008008DF809008DF80A5000BF05E0395D30
:1051D0000DF10B000155601C84B2AC42F7DB69464F
:1051E0001F4801F02BF80646002401E0601C84B241
:1051F00031461B4801F0BAF818B940F6FF708442F6
:10520000F4DB40F6FF70844202DB012005B0F0BD04
:105210000020FBE730B585B005460021104801F0BD
:1052200085F910B9002005B030BD6A4600210C4850
:1052300001F0F9F8002404E00DF10B00005D2855A1
:10524000641C9DF80A00A042F6D89DF80A00EAE71F
:10525000A0000020AA000020850000208E00002071
:105260000068004000B591B00121880501F070FE92
:105270000021FB4803F018F9F94803F039F8002041
:105280000190F8480290F8480390002004905A20BA
:105290000590002006904FF4806007904000089031
:1052A0000990C0100A9000200C9003200D9000047B
:1052B0000B9000200E900F9001A9E94803F0BAF876
:1052C00001221021E64803F07CF90121E44803F0B3
:1052D000EBF838208DF8400003208DF841000220C3
:1052E0008DF8420001208DF8430010A800F077FBF4
:1052F00011B000BD2DE9F0410026DC49D84803F08B
:105300007DF910B300241AE0002509E005EB450003
:10531000D54901EB400030F814000644681CC5B2C2
:105320001E2DF3DB1E2096FBF0F7384613F02BFF03
:10533000CF4A02EBC40203C20026601CC4B2032C95
:10534000E2DBCA49C64803F083F9BDE8F08100B545
:1053500091B00121480501F0FBFD0021C54803F093
:10536000A3F8C44802F0C4FF4FF000600190C248A7
:105370000290C248039040200490FA20059000203B
:1053800006904FF4806007900020089009904FF439
:1053900080700A9000200C9003200D9000040B9068
:1053A00000200E900F9001A9B24803F043F80021AD
:1053B000B04803F079F801221021AE4803F001F95A
:1053C0000021AC48183803F06FF8AA48183802F0EA
:1053D0008FFF4FF000600190A7480290A84803900B
:1053E00000200490FA200590002006904FF4806081
:1053F00007900020089009904FF480700A900020D8
:105400000C9003200D9000040B9000200E900F9044
:1054100001A99848183803F00DF80121954818386B
:1054200003F042F811208DF8400000208DF8410073
:1054300001208DF842008DF8430010A800F0CFFA4B
:1054400011B000BD00B591B00121480501F080FD0B
:1054500000218848483803F027F88648483802F089
:1054600047FF4FF000600190864802908648039005
:1054700040200490FA200590002006904FF48060B0
:1054800007900020089009904FF480700A90002047
:105490000C9003200D9000040B9000200E900F90B4
:1054A00001A97448483802F0C5FF00217148483806
:1054B00002F0FAFF012210216E48483803F081F80B
:1054C00000216C48783802F0EFFF6A48783802F023
:1054D0000FFF4FF0006001906A4802906B48039004
:1054E00000200490FA200590002006904FF4806080
:1054F00007900020089009904FF480700A900020D7
:105500000C9003200D9000040B9000200E900F9043
:1055100001A95848783802F08DFF012155487838A4
:1055200002F0C2FF0E208DF8400002208DF84100ED
:1055300001208DF842008DF8430010A800F04FFACA
:1055400011B000BD10B5044621464A48483802F063
:10555000CCFF01214748483802F0A6FF10BD00B536
:1055600091B00121480501F0F3FC00214148303899
:1055700002F09AFF3F48303802F0BAFE4FF0006068
:105580000190434802904348039040200490FA2041
:105590000590002006904FF480600790002008904E
:1055A00009904FF480700A9000200C9003200D9019
:1055B00000040B9000200E900F9001A92D48303868
:1055C00002F038FF00212B48303802F06DFF012235
:1055D00010212848303802F0F4FF002125486038B7
:1055E00002F062FF2348603802F082FE4FF0006054
:1055F0000190274802902848039000200490FA2048
:105600000590002006904FF48060079000200890DD
:1056100009904FF480700A9000200C9003200D90A8
:1056200000040B9000200E900F9001A911486038E3
:1056300002F000FF01210F48603802F035FF0F2013
:105640008DF8400003208DF8410001208DF84200C4
:105650008DF8430010A800F0C2F911B000BD0000A1
:10566000106402404C200140704700202080001050
:1056700028480020A0600240044400402E4B002037
:10568000344A002004480040164F00201C4E0020E1
:10569000044C0040404800203A49002010B5044620
:1056A0000421784801F032FA2146774802F01DFFC4
:1056B0000121754802F0F8FE10BD00B591B001213E
:1056C000880501F045FC0021704802F0EDFE6F48AE
:1056D00002F00EFE4FF0206001906D4802906D4880
:1056E000039040200490FA200590002006904FF48B
:1056F000806007900020089009904FF480700A9015
:1057000000200C9003200D9000040B9000200E90C0
:105710000F9001A95D4802F08DFE00215B4802F068
:10572000C3FE01221021594802F04BFF00215748C7
:10573000903802F0B9FE5548903802F0D9FD4FF08C
:10574000206001905248029053480390002004903A
:10575000FA200590002006904FF48060079000200A
:10576000089009904FF480700A9000200C9003205C
:105770000D9000040B9000200E900F9001A943485B
:10578000903802F057FE01214048903802F08CFE1C
:1057900046208DF8400002208DF8410004208DF84D
:1057A000420001208DF8430010A800F018F911B054
:1057B00000BD10B504462146344802F096FE012192
:1057C000324802F071FE10BD10B534492E48303019
:1057D00002F014FF48B131492B48303002F038FF55
:1057E00000212948303002F05FFE10BD10B52C4971
:1057F0002548183802F002FF48B1294922481838D4
:1058000002F026FF00212048183802F04DFE10BD9E
:1058100010B524491C4802F0F1FE68B1012240F2A3
:105820002661214801F08DFE1E49174802F010FF45
:105830000021154802F038FE10BD10B51B49134871
:10584000903802F0DBFE48B118491048903802F059
:10585000FFFE00210D48903802F026FE10BD10B565
:1058600013490A4802F0CAFE50B11149074802F034
:10587000EFFE0021054802F017FE01200D490870D7
:1058800010BD00000000024070600240B864024099
:1058900004140140224D0020284C002000802020CC
:1058A0000080001820800020004C0040008800107C
:1058B000008000283403002000B58DB001210420B1
:1058C00001F046FB0121080201F09CFB0E200B9029
:1058D00003208DF8300000208DF833000BA92048FC
:1058E00001F098F8002007900A9009904FF480305A
:1058F000089007A800F018F90020019001208DF809
:1059000008008DF8090000200390059003208DF811
:10591000180001A9134800F0D8F8072301220B2131
:10592000104800F058F9072302220C210D4800F01E
:1059300052F9072303220D210A4800F04CF90121F6
:10594000084800F0F3F90121064800F0E4F90121CC
:10595000044800F000F9034800F099F90DB000BDCB
:10596000000802400020014045F25552084B1A60E1
:105970001A46506091604AF6AA221A604CF6CC4250
:105980001A6070474AF6AA20014908607047000073
:10599000003000400948804709480047FEE7FEE71D
:1059A000FEE7FEE7FEE7FEE7FEE7FEE7FEE7FEE7CF
:1059B00004480549054A064B70470000414A000863
:1059C00089010008B8B40020B8BA0020B8B6002099
:1059D000B8B6002032490143324A1160704770B5B1
:1059E000002100230F22C4781CB32E4C246804F439
:1059F000E064C4F5E064C4F30721C1F10404E3B238
:105A00000A4144789C40E1B28478144021430C0759
:105A1000210E254C05786155047804F01F050124FA
:105A2000AC4005786D11AD0005F1E025C5F80041E9
:105A300009E0047804F01F050124AC401B4D0678F2
:105A4000761145F8264070BD194A0A400243154BAD
:105A50001B1F1A60704739B1124A121D12680243A7
:105A6000104B1B1D1A6006E00E4A121D126882437D
:105A70000C4B1B1D1A607047042808D14FF0E02121
:105A8000096941F004014FF0E022116107E04FF095
:105A9000E021096921F004014FF0E0221161704713
:105AA0000000FA050CED00E000E400E080E100E019
:105AB00080FFFF1F10B50121080201F0F8FA002154
:105AC0004FF4807001F0F3FA10BD30B502460020AB
:105AD00000235068F84C20400D790C6844EA0524F6
